{
  "contractName": "FarmerPortal",
  "abi": [
    {
      "anonymous": false,
      "inputs": [
        {
          "indexed": true,
          "internalType": "address",
          "name": "buyer",
          "type": "address"
        },
        {
          "indexed": true,
          "internalType": "address",
          "name": "farmer",
          "type": "address"
        },
        {
          "indexed": false,
          "internalType": "uint256",
          "name": "cropID",
          "type": "uint256"
        },
        {
          "indexed": false,
          "internalType": "uint256",
          "name": "quantity",
          "type": "uint256"
        },
        {
          "indexed": false,
          "internalType": "uint256",
          "name": "amountHeld",
          "type": "uint256"
        }
      ],
      "name": "CropBought",
      "type": "event"
    },
    {
      "anonymous": false,
      "inputs": [
        {
          "indexed": true,
          "internalType": "address",
          "name": "farmer",
          "type": "address"
        },
        {
          "indexed": false,
          "internalType": "string",
          "name": "cropName",
          "type": "string"
        },
        {
          "indexed": false,
          "internalType": "uint256",
          "name": "price",
          "type": "uint256"
        },
        {
          "indexed": false,
          "internalType": "uint256",
          "name": "cropID",
          "type": "uint256"
        },
        {
          "indexed": false,
          "internalType": "uint256",
          "name": "quantity",
          "type": "uint256"
        },
        {
          "indexed": false,
          "internalType": "string",
          "name": "deliveryDate",
          "type": "string"
        },
        {
          "indexed": false,
          "internalType": "string",
          "name": "imageCID",
          "type": "string"
        }
      ],
      "name": "CropListed",
      "type": "event"
    },
    {
      "anonymous": false,
      "inputs": [
        {
          "indexed": true,
          "internalType": "address",
          "name": "buyer",
          "type": "address"
        },
        {
          "indexed": true,
          "internalType": "address",
          "name": "farmer",
          "type": "address"
        },
        {
          "indexed": false,
          "internalType": "uint256",
          "name": "cropID",
          "type": "uint256"
        },
        {
          "indexed": false,
          "internalType": "uint256",
          "name": "amountReleased",
          "type": "uint256"
        }
      ],
      "name": "DeliveryConfirmed",
      "type": "event"
    },
    {
      "anonymous": false,
      "inputs": [
        {
          "indexed": true,
          "internalType": "uint256",
          "name": "requestId",
          "type": "uint256"
        },
        {
          "indexed": true,
          "internalType": "address",
          "name": "buyer",
          "type": "address"
        },
        {
          "indexed": true,
          "internalType": "address",
          "name": "farmer",
          "type": "address"
        },
        {
          "indexed": false,
          "internalType": "uint256",
          "name": "cropID",
          "type": "uint256"
        },
        {
          "indexed": false,
          "internalType": "uint256",
          "name": "quantity",
          "type": "uint256"
        }
      ],
      "name": "PurchaseRequested",
      "type": "event"
    },
    {
      "anonymous": false,
      "inputs": [
        {
          "indexed": true,
          "internalType": "uint256",
          "name": "requestId",
          "type": "uint256"
        },
        {
          "indexed": false,
          "internalType": "enum FarmerPortal.RequestStatus",
          "name": "status",
          "type": "uint8"
        }
      ],
      "name": "RequestStatusChanged",
      "type": "event"
    },
    {
      "anonymous": false,
      "inputs": [
        {
          "indexed": true,
          "internalType": "address",
          "name": "user",
          "type": "address"
        },
        {
          "indexed": false,
          "internalType": "string",
          "name": "name",
          "type": "string"
        },
        {
          "indexed": false,
          "internalType": "string",
          "name": "profileImageCID",
          "type": "string"
        }
      ],
      "name": "UserProfileUpdated",
      "type": "event"
    },
    {
      "anonymous": false,
      "inputs": [
        {
          "indexed": true,
          "internalType": "address",
          "name": "user",
          "type": "address"
        },
        {
          "indexed": false,
          "internalType": "enum FarmerPortal.UserRole",
          "name": "role",
          "type": "uint8"
        }
      ],
      "name": "UserRegistered",
      "type": "event"
    },
    {
      "inputs": [
        {
          "internalType": "address",
          "name": "",
          "type": "address"
        }
      ],
      "name": "escrowBalances",
      "outputs": [
        {
          "internalType": "uint256",
          "name": "",
          "type": "uint256"
        }
      ],
      "stateMutability": "view",
      "type": "function",
      "constant": true
    },
    {
      "inputs": [
        {
          "internalType": "address",
          "name": "",
          "type": "address"
        }
      ],
      "name": "users",
      "outputs": [
        {
          "internalType": "address",
          "name": "wallet",
          "type": "address"
        },
        {
          "internalType": "enum FarmerPortal.UserRole",
          "name": "role",
          "type": "uint8"
        },
        {
          "internalType": "bool",
          "name": "registered",
          "type": "bool"
        },
        {
          "internalType": "string",
          "name": "name",
          "type": "string"
        },
        {
          "internalType": "string",
          "name": "profileImageCID",
          "type": "string"
        },
        {
          "internalType": "string",
          "name": "location",
          "type": "string"
        },
        {
          "internalType": "string",
          "name": "contact",
          "type": "string"
        }
      ],
      "stateMutability": "view",
      "type": "function",
      "constant": true
    },
    {
      "inputs": [
        {
          "internalType": "uint8",
          "name": "role",
          "type": "uint8"
        }
      ],
      "name": "registerUser",
      "outputs": [],
      "stateMutability": "nonpayable",
      "type": "function"
    },
    {
      "inputs": [
        {
          "internalType": "string",
          "name": "_name",
          "type": "string"
        },
        {
          "internalType": "string",
          "name": "_profileImageCID",
          "type": "string"
        },
        {
          "internalType": "string",
          "name": "_location",
          "type": "string"
        },
        {
          "internalType": "string",
          "name": "_contact",
          "type": "string"
        }
      ],
      "name": "updateUserProfile",
      "outputs": [],
      "stateMutability": "nonpayable",
      "type": "function"
    },
    {
      "inputs": [
        {
          "internalType": "address",
          "name": "_userAddress",
          "type": "address"
        }
      ],
      "name": "getUserProfile",
      "outputs": [
        {
          "internalType": "string",
          "name": "",
          "type": "string"
        },
        {
          "internalType": "string",
          "name": "",
          "type": "string"
        },
        {
          "internalType": "string",
          "name": "",
          "type": "string"
        },
        {
          "internalType": "string",
          "name": "",
          "type": "string"
        },
        {
          "internalType": "enum FarmerPortal.UserRole",
          "name": "",
          "type": "uint8"
        }
      ],
      "stateMutability": "view",
      "type": "function",
      "constant": true
    },
    {
      "inputs": [
        {
          "internalType": "string",
          "name": "_cropName",
          "type": "string"
        },
        {
          "internalType": "uint256",
          "name": "_price",
          "type": "uint256"
        },
        {
          "internalType": "uint256",
          "name": "_cropID",
          "type": "uint256"
        },
        {
          "internalType": "uint256",
          "name": "_quantity",
          "type": "uint256"
        },
        {
          "internalType": "string",
          "name": "_deliveryDate",
          "type": "string"
        },
        {
          "internalType": "string",
          "name": "_imageCID",
          "type": "string"
        }
      ],
      "name": "addListing",
      "outputs": [],
      "stateMutability": "nonpayable",
      "type": "function"
    },
    {
      "inputs": [],
      "name": "getMyListings",
      "outputs": [
        {
          "components": [
            {
              "internalType": "string",
              "name": "cropName",
              "type": "string"
            },
            {
              "internalType": "uint256",
              "name": "price",
              "type": "uint256"
            },
            {
              "internalType": "uint256",
              "name": "cropID",
              "type": "uint256"
            },
            {
              "internalType": "uint256",
              "name": "quantity",
              "type": "uint256"
            },
            {
              "internalType": "string",
              "name": "deliveryDate",
              "type": "string"
            },
            {
              "internalType": "address",
              "name": "farmer",
              "type": "address"
            },
            {
              "internalType": "string",
              "name": "imageCID",
              "type": "string"
            }
          ],
          "internalType": "struct FarmerPortal.CropListing[]",
          "name": "",
          "type": "tuple[]"
        }
      ],
      "stateMutability": "view",
      "type": "function",
      "constant": true
    },
    {
      "inputs": [
        {
          "internalType": "address",
          "name": "_user",
          "type": "address"
        }
      ],
      "name": "getUserRole",
      "outputs": [
        {
          "internalType": "enum FarmerPortal.UserRole",
          "name": "",
          "type": "uint8"
        }
      ],
      "stateMutability": "view",
      "type": "function",
      "constant": true
    },
    {
      "inputs": [],
      "name": "getAllListings",
      "outputs": [
        {
          "components": [
            {
              "internalType": "string",
              "name": "cropName",
              "type": "string"
            },
            {
              "internalType": "uint256",
              "name": "price",
              "type": "uint256"
            },
            {
              "internalType": "uint256",
              "name": "cropID",
              "type": "uint256"
            },
            {
              "internalType": "uint256",
              "name": "quantity",
              "type": "uint256"
            },
            {
              "internalType": "string",
              "name": "deliveryDate",
              "type": "string"
            },
            {
              "internalType": "address",
              "name": "farmer",
              "type": "address"
            },
            {
              "internalType": "string",
              "name": "imageCID",
              "type": "string"
            }
          ],
          "internalType": "struct FarmerPortal.CropListing[]",
          "name": "",
          "type": "tuple[]"
        }
      ],
      "stateMutability": "view",
      "type": "function",
      "constant": true
    },
    {
      "inputs": [
        {
          "internalType": "uint256",
          "name": "cropID",
          "type": "uint256"
        },
        {
          "internalType": "uint256",
          "name": "quantity",
          "type": "uint256"
        },
        {
          "internalType": "string",
          "name": "message",
          "type": "string"
        }
      ],
      "name": "requestPurchase",
      "outputs": [],
      "stateMutability": "nonpayable",
      "type": "function"
    },
    {
      "inputs": [
        {
          "internalType": "uint256",
          "name": "requestId",
          "type": "uint256"
        },
        {
          "internalType": "bool",
          "name": "accept",
          "type": "bool"
        }
      ],
      "name": "respondToPurchaseRequest",
      "outputs": [],
      "stateMutability": "nonpayable",
      "type": "function"
    },
    {
      "inputs": [
        {
          "internalType": "uint256",
          "name": "requestId",
          "type": "uint256"
        }
      ],
      "name": "completePurchase",
      "outputs": [],
      "stateMutability": "payable",
      "type": "function",
      "payable": true
    },
    {
      "inputs": [],
      "name": "getFarmerRequests",
      "outputs": [
        {
          "components": [
            {
              "internalType": "uint256",
              "name": "requestId",
              "type": "uint256"
            },
            {
              "internalType": "uint256",
              "name": "cropID",
              "type": "uint256"
            },
            {
              "internalType": "uint256",
              "name": "quantity",
              "type": "uint256"
            },
            {
              "internalType": "address",
              "name": "buyer",
              "type": "address"
            },
            {
              "internalType": "address",
              "name": "farmer",
              "type": "address"
            },
            {
              "internalType": "uint256",
              "name": "price",
              "type": "uint256"
            },
            {
              "internalType": "enum FarmerPortal.RequestStatus",
              "name": "status",
              "type": "uint8"
            },
            {
              "internalType": "string",
              "name": "message",
              "type": "string"
            },
            {
              "internalType": "uint256",
              "name": "timestamp",
              "type": "uint256"
            }
          ],
          "internalType": "struct FarmerPortal.PurchaseRequest[]",
          "name": "",
          "type": "tuple[]"
        }
      ],
      "stateMutability": "view",
      "type": "function",
      "constant": true
    },
    {
      "inputs": [],
      "name": "getBuyerRequests",
      "outputs": [
        {
          "components": [
            {
              "internalType": "uint256",
              "name": "requestId",
              "type": "uint256"
            },
            {
              "internalType": "uint256",
              "name": "cropID",
              "type": "uint256"
            },
            {
              "internalType": "uint256",
              "name": "quantity",
              "type": "uint256"
            },
            {
              "internalType": "address",
              "name": "buyer",
              "type": "address"
            },
            {
              "internalType": "address",
              "name": "farmer",
              "type": "address"
            },
            {
              "internalType": "uint256",
              "name": "price",
              "type": "uint256"
            },
            {
              "internalType": "enum FarmerPortal.RequestStatus",
              "name": "status",
              "type": "uint8"
            },
            {
              "internalType": "string",
              "name": "message",
              "type": "string"
            },
            {
              "internalType": "uint256",
              "name": "timestamp",
              "type": "uint256"
            }
          ],
          "internalType": "struct FarmerPortal.PurchaseRequest[]",
          "name": "",
          "type": "tuple[]"
        }
      ],
      "stateMutability": "view",
      "type": "function",
      "constant": true
    },
    {
      "inputs": [],
      "name": "getPendingDeliveries",
      "outputs": [
        {
          "components": [
            {
              "internalType": "uint256",
              "name": "cropID",
              "type": "uint256"
            },
            {
              "internalType": "uint256",
              "name": "quantity",
              "type": "uint256"
            },
            {
              "internalType": "address",
              "name": "buyer",
              "type": "address"
            },
            {
              "internalType": "address",
              "name": "farmer",
              "type": "address"
            },
            {
              "internalType": "uint256",
              "name": "amountHeld",
              "type": "uint256"
            },
            {
              "internalType": "bool",
              "name": "delivered",
              "type": "bool"
            }
          ],
          "internalType": "struct FarmerPortal.Purchase[]",
          "name": "",
          "type": "tuple[]"
        }
      ],
      "stateMutability": "view",
      "type": "function",
      "constant": true
    },
    {
      "inputs": [
        {
          "internalType": "uint256",
          "name": "cropID",
          "type": "uint256"
        }
      ],
      "name": "confirmDelivery",
      "outputs": [],
      "stateMutability": "nonpayable",
      "type": "function"
    }
  ],
  "bytecode": "0x6080604052600160085534801561001557600080fd5b50615e8d80620000266000396000f3fe6080604052600436106100f25760003560e01c806390145bb31161008a578063a87430ba11610059578063a87430ba1461032b578063ae73ccec1461036e578063bfeee90d14610399578063fd84cb97146103b5576100f2565b806390145bb314610259578063956e8963146102845780639672ba57146102ad578063987ee156146102ea576100f2565b80635fdfb009116100c65780635fdfb009146101b157806379726074146101dc5780638c6efadd146102055780638d6048851461022e576100f2565b8062754eea146100f757806302b8c8cd14610122578063278208511461014b5780635a58122514610188575b600080fd5b34801561010357600080fd5b5061010c6103de565b604051610119919061463c565b60405180910390f35b34801561012e57600080fd5b50610149600480360381019061014491906146ab565b6107e7565b005b34801561015757600080fd5b50610172600480360381019061016d9190614704565b610bdf565b60405161017f91906147a8565b60405180910390f35b34801561019457600080fd5b506101af60048036038101906101aa9190614827565b610c37565b005b3480156101bd57600080fd5b506101c6611083565b6040516101d39190614a36565b60405180910390f35b3480156101e857600080fd5b5061020360048036038101906101fe9190614b8d565b611547565b005b34801561021157600080fd5b5061022c60048036038101906102279190614c64565b6116b6565b005b34801561023a57600080fd5b50610243611cc0565b6040516102509190614a36565b60405180910390f35b34801561026557600080fd5b5061026e612184565b60405161027b9190614e0c565b60405180910390f35b34801561029057600080fd5b506102ab60048036038101906102a69190614e2e565b61256d565b005b3480156102b957600080fd5b506102d460048036038101906102cf9190614704565b612870565b6040516102e19190614f1e565b60405180910390f35b3480156102f657600080fd5b50610311600480360381019061030c9190614704565b612888565b604051610322959493929190614f83565b60405180910390f35b34801561033757600080fd5b50610352600480360381019061034d9190614704565b612c8c565b6040516103659796959493929190615010565b60405180910390f35b34801561037a57600080fd5b50610383612f28565b604051610390919061463c565b60405180910390f35b6103b360048036038101906103ae919061509b565b6133cc565b005b3480156103c157600080fd5b506103dc60048036038101906103d7919061509b565b613d6b565b005b60606000803373ffffffffffffffffffffffffffffffffffffffff1673ffffffffffffffffffffffffffffffffffffffff16815260200190815260200160002060000160159054906101000a900460ff1661046e576040517f08c379a000000000000000000000000000000000000000000000000000000000815260040161046590615114565b60405180910390fd5b6001600381111561048257610481614731565b5b6000803373ffffffffffffffffffffffffffffffffffffffff1673ffffffffffffffffffffffffffffffffffffffff16815260200190815260200160002060000160149054906101000a900460ff1660038111156104e3576104e2614731565b5b14610523576040517f08c379a000000000000000000000000000000000000000000000000000000000815260040161051a90615180565b60405180910390fd5b600160003373ffffffffffffffffffffffffffffffffffffffff1673ffffffffffffffffffffffffffffffffffffffff168152602001908152602001600020805480602002602001604051908101604052809291908181526020016000905b828210156107de57838290600052602060002090600702016040518060e00160405290816000820180546105b5906151cf565b80601f01602080910402602001604051908101604052809291908181526020018280546105e1906151cf565b801561062e5780601f106106035761010080835404028352916020019161062e565b820191906000526020600020905b81548152906001019060200180831161061157829003601f168201915b50505050508152602001600182015481526020016002820154815260200160038201548152602001600482018054610665906151cf565b80601f0160208091040260200160405190810160405280929190818152602001828054610691906151cf565b80156106de5780601f106106b3576101008083540402835291602001916106de565b820191906000526020600020905b8154815290600101906020018083116106c157829003601f168201915b505050505081526020016005820160009054906101000a900473ffffffffffffffffffffffffffffffffffffffff1673ffffffffffffffffffffffffffffffffffffffff1673ffffffffffffffffffffffffffffffffffffffff16815260200160068201805461074d906151cf565b80601f0160208091040260200160405190810160405280929190818152602001828054610779906151cf565b80156107c65780601f1061079b576101008083540402835291602001916107c6565b820191906000526020600020905b8154815290600101906020018083116107a957829003601f168201915b50505050508152505081526020019060010190610582565b50505050905090565b600160038111156107fb576107fa614731565b5b60ff168160ff16148061082657506002600381111561081d5761081c614731565b5b60ff168160ff16145b80610848575060038081111561083f5761083e614731565b5b60ff168160ff16145b610887576040517f08c379a000000000000000000000000000000000000000000000000000000000815260040161087e9061524c565b60405180910390fd5b6000803373ffffffffffffffffffffffffffffffffffffffff1673ffffffffffffffffffffffffffffffffffffffff16815260200190815260200160002060000160159054906101000a900460ff1615610916576040517f08c379a000000000000000000000000000000000000000000000000000000000815260040161090d906152b8565b60405180910390fd5b6040518060e001604052803373ffffffffffffffffffffffffffffffffffffffff1681526020018260ff16600381111561095357610952614731565b5b600381111561096557610964614731565b5b8152602001600115158152602001604051806020016040528060008152508152602001604051806020016040528060008152508152602001604051806020016040528060008152508152602001604051806020016040528060008152508152506000803373ffffffffffffffffffffffffffffffffffffffff1673ffffffffffffffffffffffffffffffffffffffff16815260200190815260200160002060008201518160000160006101000a81548173ffffffffffffffffffffffffffffffffffffffff021916908373ffffffffffffffffffffffffffffffffffffffff16021790555060208201518160000160146101000a81548160ff02191690836003811115610a7557610a74614731565b5b021790555060408201518160000160156101000a81548160ff0219169083151502179055506060820151816001019081610aaf9190615484565b506080820151816002019081610ac59190615484565b5060a0820151816003019081610adb9190615484565b5060c0820151816004019081610af19190615484565b509050503373ffffffffffffffffffffffffffffffffffffffff167f8e18574f8a7333e6a87112742a55853a643e2f0550f4e1a3a2c3f1bb2994441d8260ff166003811115610b4357610b42614731565b5b604051610b5091906147a8565b60405180910390a260016003811115610b6c57610b6b614731565b5b60ff168160ff1603610bdc576004339080600181540180825580915050600190039060005260206000200160009091909190916101000a81548173ffffffffffffffffffffffffffffffffffffffff021916908373ffffffffffffffffffffffffffffffffffffffff1602179055505b50565b60008060008373ffffffffffffffffffffffffffffffffffffffff1673ffffffffffffffffffffffffffffffffffffffff16815260200190815260200160002060000160149054906101000a900460ff169050919050565b6000803373ffffffffffffffffffffffffffffffffffffffff1673ffffffffffffffffffffffffffffffffffffffff16815260200190815260200160002060000160159054906101000a900460ff16610cc5576040517f08c379a0000000000000000000000000000000000000000000000000000000008152600401610cbc90615114565b60405180910390fd5b60016003811115610cd957610cd8614731565b5b6000803373ffffffffffffffffffffffffffffffffffffffff1673ffffffffffffffffffffffffffffffffffffffff16815260200190815260200160002060000160149054906101000a900460ff166003811115610d3a57610d39614731565b5b14610d7a576040517f08c379a0000000000000000000000000000000000000000000000000000000008152600401610d7190615180565b60405180910390fd5b60008060005b60058054905081108015610d92575081155b15610dde578460058281548110610dac57610dab615556565b5b90600052602060002090600902016000015403610dcb57809250600191505b8080610dd6906155b4565b915050610d80565b5080610e1f576040517f08c379a0000000000000000000000000000000000000000000000000000000008152600401610e1690615648565b60405180910390fd5b3373ffffffffffffffffffffffffffffffffffffffff1660058381548110610e4a57610e49615556565b5b906000526020600020906009020160040160009054906101000a900473ffffffffffffffffffffffffffffffffffffffff1673ffffffffffffffffffffffffffffffffffffffff1614610ed2576040517f08c379a0000000000000000000000000000000000000000000000000000000008152600401610ec9906156b4565b60405180910390fd5b60006003811115610ee657610ee5614731565b5b60058381548110610efa57610ef9615556565b5b906000526020600020906009020160060160009054906101000a900460ff166003811115610f2b57610f2a614731565b5b14610f6b576040517f08c379a0000000000000000000000000000000000000000000000000000000008152600401610f6290615720565b60405180910390fd5b8215610fc457600160058381548110610f8757610f86615556565b5b906000526020600020906009020160060160006101000a81548160ff02191690836003811115610fba57610fb9614731565b5b0217905550611013565b600260058381548110610fda57610fd9615556565b5b906000526020600020906009020160060160006101000a81548160ff0219169083600381111561100d5761100c614731565b5b02179055505b837fc8926ec9c62d9b87ca5e4dfb0b49c1d0797cde714599e2c6d5663e5b813413ab6005848154811061104957611048615556565b5b906000526020600020906009020160060160009054906101000a900460ff16604051611075919061574f565b60405180910390a250505050565b60606000803373ffffffffffffffffffffffffffffffffffffffff1673ffffffffffffffffffffffffffffffffffffffff16815260200190815260200160002060000160159054906101000a900460ff16611113576040517f08c379a000000000000000000000000000000000000000000000000000000000815260040161110a90615114565b60405180910390fd5b6001600381111561112757611126614731565b5b6000803373ffffffffffffffffffffffffffffffffffffffff1673ffffffffffffffffffffffffffffffffffffffff16815260200190815260200160002060000160149054906101000a900460ff16600381111561118857611187614731565b5b146111c8576040517f08c379a00000000000000000000000000000000000000000000000000000000081526004016111bf90615180565b60405180910390fd5b6000600660003373ffffffffffffffffffffffffffffffffffffffff1673ffffffffffffffffffffffffffffffffffffffff16815260200190815260200160002080548060200260200160405190810160405280929190818152602001828054801561125357602002820191906000526020600020905b81548152602001906001019080831161123f575b505050505090506000815167ffffffffffffffff81111561127757611276614a62565b5b6040519080825280602002602001820160405280156112b057816020015b61129d6142a5565b8152602001906001900390816112955790505b50905060005b825181101561153e5760008382815181106112d4576112d3615556565b5b6020026020010151905060005b60058054905081101561152957816005828154811061130357611302615556565b5b90600052602060002090600902016000015403611516576005818154811061132e5761132d615556565b5b9060005260206000209060090201604051806101200160405290816000820154815260200160018201548152602001600282015481526020016003820160009054906101000a900473ffffffffffffffffffffffffffffffffffffffff1673ffffffffffffffffffffffffffffffffffffffff1673ffffffffffffffffffffffffffffffffffffffff1681526020016004820160009054906101000a900473ffffffffffffffffffffffffffffffffffffffff1673ffffffffffffffffffffffffffffffffffffffff1673ffffffffffffffffffffffffffffffffffffffff168152602001600582015481526020016006820160009054906101000a900460ff16600381111561144157611440614731565b5b600381111561145357611452614731565b5b8152602001600782018054611467906151cf565b80601f0160208091040260200160405190810160405280929190818152602001828054611493906151cf565b80156114e05780601f106114b5576101008083540402835291602001916114e0565b820191906000526020600020905b8154815290600101906020018083116114c357829003601f168201915b5050505050815260200160088201548152505084848151811061150657611505615556565b5b6020026020010181905250611529565b8080611521906155b4565b9150506112e1565b50508080611536906155b4565b9150506112b6565b50809250505090565b6000803373ffffffffffffffffffffffffffffffffffffffff1673ffffffffffffffffffffffffffffffffffffffff16815260200190815260200160002060000160159054906101000a900460ff166115d5576040517f08c379a00000000000000000000000000000000000000000000000000000000081526004016115cc90615114565b60405180910390fd5b60008060003373ffffffffffffffffffffffffffffffffffffffff1673ffffffffffffffffffffffffffffffffffffffff1681526020019081526020016000209050848160010190816116289190615484565b508381600201908161163a9190615484565b508281600301908161164c9190615484565b508181600401908161165e9190615484565b503373ffffffffffffffffffffffffffffffffffffffff167fc13dafd9d9a1258e2f2de748cef0b799dbcc614ed620f5b0564ae615a759795c86866040516116a792919061576a565b60405180910390a25050505050565b6000803373ffffffffffffffffffffffffffffffffffffffff1673ffffffffffffffffffffffffffffffffffffffff16815260200190815260200160002060000160159054906101000a900460ff16611744576040517f08c379a000000000000000000000000000000000000000000000000000000000815260040161173b90615114565b60405180910390fd5b6002600381111561175857611757614731565b5b6000803373ffffffffffffffffffffffffffffffffffffffff1673ffffffffffffffffffffffffffffffffffffffff16815260200190815260200160002060000160149054906101000a900460ff1660038111156117b9576117b8614731565b5b146117f9576040517f08c379a00000000000000000000000000000000000000000000000000000000081526004016117f0906157ed565b60405180910390fd5b6000806000805b60048054905081108015611812575081155b1561196e5760006004828154811061182d5761182c615556565b5b9060005260206000200160009054906101000a900473ffffffffffffffffffffffffffffffffffffffff1690506000600160008373ffffffffffffffffffffffffffffffffffffffff1673ffffffffffffffffffffffffffffffffffffffff16815260200190815260200160002080549050905060005b81811080156118b1575084155b15611958576000600160008573ffffffffffffffffffffffffffffffffffffffff1673ffffffffffffffffffffffffffffffffffffffff168152602001908152602001600020828154811061190957611908615556565b5b906000526020600020906007020190508a8160020154148015611930575089816003015410155b156119445783975080600101549650600195505b508080611950906155b4565b9150506118a4565b5050508080611966906155b4565b915050611800565b50806119af576040517f08c379a00000000000000000000000000000000000000000000000000000000081526004016119a69061587f565b60405180910390fd5b6000600860008154809291906119c4906155b4565b91905055905060006040518061012001604052808381526020018981526020018881526020013373ffffffffffffffffffffffffffffffffffffffff1681526020018673ffffffffffffffffffffffffffffffffffffffff16815260200185815260200160006003811115611a3c57611a3b614731565b5b8152602001878152602001428152509050600581908060018154018082558091505060019003906000526020600020906009020160009091909190915060008201518160000155602082015181600101556040820151816002015560608201518160030160006101000a81548173ffffffffffffffffffffffffffffffffffffffff021916908373ffffffffffffffffffffffffffffffffffffffff16021790555060808201518160040160006101000a81548173ffffffffffffffffffffffffffffffffffffffff021916908373ffffffffffffffffffffffffffffffffffffffff16021790555060a0820151816005015560c08201518160060160006101000a81548160ff02191690836003811115611b5a57611b59614731565b5b021790555060e0820151816007019081611b749190615484565b5061010082015181600801555050600660008673ffffffffffffffffffffffffffffffffffffffff1673ffffffffffffffffffffffffffffffffffffffff168152602001908152602001600020829080600181540180825580915050600190039060005260206000200160009091909190915055600760003373ffffffffffffffffffffffffffffffffffffffff1673ffffffffffffffffffffffffffffffffffffffff1681526020019081526020016000208290806001815401808255809150506001900390600052602060002001600090919091909150558473ffffffffffffffffffffffffffffffffffffffff163373ffffffffffffffffffffffffffffffffffffffff16837ff37fee757e7c509a1197948d535e31a21fa8d59b7f90b3f264150314529801098b8b604051611cae92919061589f565b60405180910390a45050505050505050565b60606000803373ffffffffffffffffffffffffffffffffffffffff1673ffffffffffffffffffffffffffffffffffffffff16815260200190815260200160002060000160159054906101000a900460ff16611d50576040517f08c379a0000000000000000000000000000000000000000000000000000000008152600401611d4790615114565b60405180910390fd5b60026003811115611d6457611d63614731565b5b6000803373ffffffffffffffffffffffffffffffffffffffff1673ffffffffffffffffffffffffffffffffffffffff16815260200190815260200160002060000160149054906101000a900460ff166003811115611dc557611dc4614731565b5b14611e05576040517f08c379a0000000000000000000000000000000000000000000000000000000008152600401611dfc906157ed565b60405180910390fd5b6000600760003373ffffffffffffffffffffffffffffffffffffffff1673ffffffffffffffffffffffffffffffffffffffff168152602001908152602001600020805480602002602001604051908101604052809291908181526020018280548015611e9057602002820191906000526020600020905b815481526020019060010190808311611e7c575b505050505090506000815167ffffffffffffffff811115611eb457611eb3614a62565b5b604051908082528060200260200182016040528015611eed57816020015b611eda6142a5565b815260200190600190039081611ed25790505b50905060005b825181101561217b576000838281518110611f1157611f10615556565b5b6020026020010151905060005b600580549050811015612166578160058281548110611f4057611f3f615556565b5b906000526020600020906009020160000154036121535760058181548110611f6b57611f6a615556565b5b9060005260206000209060090201604051806101200160405290816000820154815260200160018201548152602001600282015481526020016003820160009054906101000a900473ffffffffffffffffffffffffffffffffffffffff1673ffffffffffffffffffffffffffffffffffffffff1673ffffffffffffffffffffffffffffffffffffffff1681526020016004820160009054906101000a900473ffffffffffffffffffffffffffffffffffffffff1673ffffffffffffffffffffffffffffffffffffffff1673ffffffffffffffffffffffffffffffffffffffff168152602001600582015481526020016006820160009054906101000a900460ff16600381111561207e5761207d614731565b5b60038111156120905761208f614731565b5b81526020016007820180546120a4906151cf565b80601f01602080910402602001604051908101604052809291908181526020018280546120d0906151cf565b801561211d5780601f106120f25761010080835404028352916020019161211d565b820191906000526020600020905b81548152906001019060200180831161210057829003601f168201915b5050505050815260200160088201548152505084848151811061214357612142615556565b5b6020026020010181905250612166565b808061215e906155b4565b915050611f1e565b50508080612173906155b4565b915050611ef3565b50809250505090565b60606000803373ffffffffffffffffffffffffffffffffffffffff1673ffffffffffffffffffffffffffffffffffffffff16815260200190815260200160002060000160159054906101000a900460ff16612214576040517f08c379a000000000000000000000000000000000000000000000000000000000815260040161220b90615114565b60405180910390fd5b6002600381111561222857612227614731565b5b6000803373ffffffffffffffffffffffffffffffffffffffff1673ffffffffffffffffffffffffffffffffffffffff16815260200190815260200160002060000160149054906101000a900460ff16600381111561228957612288614731565b5b146122c9576040517f08c379a00000000000000000000000000000000000000000000000000000000081526004016122c0906157ed565b60405180910390fd5b600080600260003373ffffffffffffffffffffffffffffffffffffffff1673ffffffffffffffffffffffffffffffffffffffff168152602001908152602001600020905060005b81805490508110156123745781818154811061232f5761232e615556565b5b906000526020600020906006020160050160009054906101000a900460ff1661236157828061235d906155b4565b9350505b808061236c906155b4565b915050612310565b5060008267ffffffffffffffff81111561239157612390614a62565b5b6040519080825280602002602001820160405280156123ca57816020015b6123b761432f565b8152602001906001900390816123af5790505b5090506000805b8380549050811015612562578381815481106123f0576123ef615556565b5b906000526020600020906006020160050160009054906101000a900460ff1661254f5783818154811061242657612425615556565b5b90600052602060002090600602016040518060c001604052908160008201548152602001600182015481526020016002820160009054906101000a900473ffffffffffffffffffffffffffffffffffffffff1673ffffffffffffffffffffffffffffffffffffffff1673ffffffffffffffffffffffffffffffffffffffff1681526020016003820160009054906101000a900473ffffffffffffffffffffffffffffffffffffffff1673ffffffffffffffffffffffffffffffffffffffff1673ffffffffffffffffffffffffffffffffffffffff168152602001600482015481526020016005820160009054906101000a900460ff161515151581525050838380612530906155b4565b94508151811061254357612542615556565b5b60200260200101819052505b808061255a906155b4565b9150506123d1565b508194505050505090565b6000803373ffffffffffffffffffffffffffffffffffffffff1673ffffffffffffffffffffffffffffffffffffffff16815260200190815260200160002060000160159054906101000a900460ff166125fb576040517f08c379a00000000000000000000000000000000000000000000000000000000081526004016125f290615114565b60405180910390fd5b6001600381111561260f5761260e614731565b5b6000803373ffffffffffffffffffffffffffffffffffffffff1673ffffffffffffffffffffffffffffffffffffffff16815260200190815260200160002060000160149054906101000a900460ff1660038111156126705761266f614731565b5b146126b0576040517f08c379a00000000000000000000000000000000000000000000000000000000081526004016126a790615180565b60405180910390fd5b60006040518060e001604052808881526020018781526020018681526020018581526020018481526020013373ffffffffffffffffffffffffffffffffffffffff168152602001838152509050600160003373ffffffffffffffffffffffffffffffffffffffff1673ffffffffffffffffffffffffffffffffffffffff168152602001908152602001600020819080600181540180825580915050600190039060005260206000209060070201600090919091909150600082015181600001908161277b9190615484565b5060208201518160010155604082015181600201556060820151816003015560808201518160040190816127af9190615484565b5060a08201518160050160006101000a81548173ffffffffffffffffffffffffffffffffffffffff021916908373ffffffffffffffffffffffffffffffffffffffff16021790555060c082015181600601908161280c9190615484565b5050503373ffffffffffffffffffffffffffffffffffffffff167fadb9330eb32afa957eff09d032c3a3cb7fcae7fef5068c01f1b9ffaa4c692e4b88888888888860405161285f969594939291906158c8565b60405180910390a250505050505050565b60036020528060005260406000206000915090505481565b60608060608060008060008773ffffffffffffffffffffffffffffffffffffffff1673ffffffffffffffffffffffffffffffffffffffff16815260200190815260200160002060000160159054906101000a900460ff1661291e576040517f08c379a000000000000000000000000000000000000000000000000000000000815260040161291590615114565b60405180910390fd5b60008060008873ffffffffffffffffffffffffffffffffffffffff1673ffffffffffffffffffffffffffffffffffffffff1681526020019081526020016000206040518060e00160405290816000820160009054906101000a900473ffffffffffffffffffffffffffffffffffffffff1673ffffffffffffffffffffffffffffffffffffffff1673ffffffffffffffffffffffffffffffffffffffff1681526020016000820160149054906101000a900460ff1660038111156129e4576129e3614731565b5b60038111156129f6576129f5614731565b5b81526020016000820160159054906101000a900460ff16151515158152602001600182018054612a25906151cf565b80601f0160208091040260200160405190810160405280929190818152602001828054612a51906151cf565b8015612a9e5780601f10612a7357610100808354040283529160200191612a9e565b820191906000526020600020905b815481529060010190602001808311612a8157829003601f168201915b50505050508152602001600282018054612ab7906151cf565b80601f0160208091040260200160405190810160405280929190818152602001828054612ae3906151cf565b8015612b305780601f10612b0557610100808354040283529160200191612b30565b820191906000526020600020905b815481529060010190602001808311612b1357829003601f168201915b50505050508152602001600382018054612b49906151cf565b80601f0160208091040260200160405190810160405280929190818152602001828054612b75906151cf565b8015612bc25780601f10612b9757610100808354040283529160200191612bc2565b820191906000526020600020905b815481529060010190602001808311612ba557829003601f168201915b50505050508152602001600482018054612bdb906151cf565b80601f0160208091040260200160405190810160405280929190818152602001828054612c07906151cf565b8015612c545780601f10612c2957610100808354040283529160200191612c54565b820191906000526020600020905b815481529060010190602001808311612c3757829003601f168201915b5050505050815250509050806060015181608001518260a001518360c001518460200151955095509550955095505091939590929450565b60006020528060005260406000206000915090508060000160009054906101000a900473ffffffffffffffffffffffffffffffffffffffff16908060000160149054906101000a900460ff16908060000160159054906101000a900460ff1690806001018054612cfb906151cf565b80601f0160208091040260200160405190810160405280929190818152602001828054612d27906151cf565b8015612d745780601f10612d4957610100808354040283529160200191612d74565b820191906000526020600020905b815481529060010190602001808311612d5757829003601f168201915b505050505090806002018054612d89906151cf565b80601f0160208091040260200160405190810160405280929190818152602001828054612db5906151cf565b8015612e025780601f10612dd757610100808354040283529160200191612e02565b820191906000526020600020905b815481529060010190602001808311612de557829003601f168201915b505050505090806003018054612e17906151cf565b80601f0160208091040260200160405190810160405280929190818152602001828054612e43906151cf565b8015612e905780601f10612e6557610100808354040283529160200191612e90565b820191906000526020600020905b815481529060010190602001808311612e7357829003601f168201915b505050505090806004018054612ea5906151cf565b80601f0160208091040260200160405190810160405280929190818152602001828054612ed1906151cf565b8015612f1e5780601f10612ef357610100808354040283529160200191612f1e565b820191906000526020600020905b815481529060010190602001808311612f0157829003601f168201915b5050505050905087565b60606000805b600480549050811015612fdc576001600060048381548110612f5357612f52615556565b5b9060005260206000200160009054906101000a900473ffffffffffffffffffffffffffffffffffffffff1673ffffffffffffffffffffffffffffffffffffffff1673ffffffffffffffffffffffffffffffffffffffff1681526020019081526020016000208054905082612fc7919061593e565b91508080612fd4906155b4565b915050612f2e565b5060008167ffffffffffffffff811115612ff957612ff8614a62565b5b60405190808252806020026020018201604052801561303257816020015b61301f614393565b8152602001906001900390816130175790505b5090506000805b6004805490508110156133c25760006004828154811061305c5761305b615556565b5b9060005260206000200160009054906101000a900473ffffffffffffffffffffffffffffffffffffffff1690506000600160008373ffffffffffffffffffffffffffffffffffffffff1673ffffffffffffffffffffffffffffffffffffffff16815260200190815260200160002080549050905060005b818110156133ac57600160008473ffffffffffffffffffffffffffffffffffffffff1673ffffffffffffffffffffffffffffffffffffffff168152602001908152602001600020818154811061312c5761312b615556565b5b90600052602060002090600702016040518060e0016040529081600082018054613155906151cf565b80601f0160208091040260200160405190810160405280929190818152602001828054613181906151cf565b80156131ce5780601f106131a3576101008083540402835291602001916131ce565b820191906000526020600020905b8154815290600101906020018083116131b157829003601f168201915b50505050508152602001600182015481526020016002820154815260200160038201548152602001600482018054613205906151cf565b80601f0160208091040260200160405190810160405280929190818152602001828054613231906151cf565b801561327e5780601f106132535761010080835404028352916020019161327e565b820191906000526020600020905b81548152906001019060200180831161326157829003601f168201915b505050505081526020016005820160009054906101000a900473ffffffffffffffffffffffffffffffffffffffff1673ffffffffffffffffffffffffffffffffffffffff1673ffffffffffffffffffffffffffffffffffffffff1681526020016006820180546132ed906151cf565b80601f0160208091040260200160405190810160405280929190818152602001828054613319906151cf565b80156133665780601f1061333b57610100808354040283529160200191613366565b820191906000526020600020905b81548152906001019060200180831161334957829003601f168201915b50505050508152505086868061337b906155b4565b97508151811061338e5761338d615556565b5b602002602001018190525080806133a4906155b4565b9150506130d3565b50505080806133ba906155b4565b915050613039565b5081935050505090565b6000803373ffffffffffffffffffffffffffffffffffffffff1673ffffffffffffffffffffffffffffffffffffffff16815260200190815260200160002060000160159054906101000a900460ff1661345a576040517f08c379a000000000000000000000000000000000000000000000000000000000815260040161345190615114565b60405180910390fd5b6002600381111561346e5761346d614731565b5b6000803373ffffffffffffffffffffffffffffffffffffffff1673ffffffffffffffffffffffffffffffffffffffff16815260200190815260200160002060000160149054906101000a900460ff1660038111156134cf576134ce614731565b5b1461350f576040517f08c379a0000000000000000000000000000000000000000000000000000000008152600401613506906157ed565b60405180910390fd5b60008060005b60058054905081108015613527575081155b1561357357836005828154811061354157613540615556565b5b9060005260206000209060090201600001540361356057809250600191505b808061356b906155b4565b915050613515565b50806135b4576040517f08c379a00000000000000000000000000000000000000000000000000000000081526004016135ab90615648565b60405180910390fd5b3373ffffffffffffffffffffffffffffffffffffffff16600583815481106135df576135de615556565b5b906000526020600020906009020160030160009054906101000a900473ffffffffffffffffffffffffffffffffffffffff1673ffffffffffffffffffffffffffffffffffffffff1614613667576040517f08c379a000000000000000000000000000000000000000000000000000000000815260040161365e906159be565b60405180910390fd5b6001600381111561367b5761367a614731565b5b6005838154811061368f5761368e615556565b5b906000526020600020906009020160060160009054906101000a900460ff1660038111156136c0576136bf614731565b5b14613700576040517f08c379a00000000000000000000000000000000000000000000000000000000081526004016136f790615a2a565b60405180910390fd5b60006005838154811061371657613715615556565b5b9060005260206000209060090201905060008160020154826005015461373c9190615a4a565b9050803414613780576040517f08c379a000000000000000000000000000000000000000000000000000000000815260040161377790615ad8565b60405180910390fd5b6000805b600160008560040160009054906101000a900473ffffffffffffffffffffffffffffffffffffffff1673ffffffffffffffffffffffffffffffffffffffff1673ffffffffffffffffffffffffffffffffffffffff16815260200190815260200160002080549050811080156137f7575081155b15613a13578360010154600160008660040160009054906101000a900473ffffffffffffffffffffffffffffffffffffffff1673ffffffffffffffffffffffffffffffffffffffff1673ffffffffffffffffffffffffffffffffffffffff168152602001908152602001600020828154811061387657613875615556565b5b90600052602060002090600702016002015403613a00578360020154600160008660040160009054906101000a900473ffffffffffffffffffffffffffffffffffffffff1673ffffffffffffffffffffffffffffffffffffffff1673ffffffffffffffffffffffffffffffffffffffff168152602001908152602001600020828154811061390757613906615556565b5b906000526020600020906007020160030154101561395a576040517f08c379a000000000000000000000000000000000000000000000000000000000815260040161395190615b44565b60405180910390fd5b8360020154600160008660040160009054906101000a900473ffffffffffffffffffffffffffffffffffffffff1673ffffffffffffffffffffffffffffffffffffffff1673ffffffffffffffffffffffffffffffffffffffff16815260200190815260200160002082815481106139d4576139d3615556565b5b906000526020600020906007020160030160008282546139f49190615b64565b92505081905550600191505b8080613a0b906155b4565b915050613784565b5080613a54576040517f08c379a0000000000000000000000000000000000000000000000000000000008152600401613a4b90615be4565b60405180910390fd5b81600360003373ffffffffffffffffffffffffffffffffffffffff1673ffffffffffffffffffffffffffffffffffffffff1681526020019081526020016000206000828254613aa3919061593e565b92505081905550600260003373ffffffffffffffffffffffffffffffffffffffff1673ffffffffffffffffffffffffffffffffffffffff1681526020019081526020016000206040518060c0016040528085600101548152602001856002015481526020013373ffffffffffffffffffffffffffffffffffffffff1681526020018560040160009054906101000a900473ffffffffffffffffffffffffffffffffffffffff1673ffffffffffffffffffffffffffffffffffffffff168152602001848152602001600015158152509080600181540180825580915050600190039060005260206000209060060201600090919091909150600082015181600001556020820151816001015560408201518160020160006101000a81548173ffffffffffffffffffffffffffffffffffffffff021916908373ffffffffffffffffffffffffffffffffffffffff16021790555060608201518160030160006101000a81548173ffffffffffffffffffffffffffffffffffffffff021916908373ffffffffffffffffffffffffffffffffffffffff1602179055506080820151816004015560a08201518160050160006101000a81548160ff021916908315150217905550505060038360060160006101000a81548160ff02191690836003811115613c9057613c8f614731565b5b02179055508260040160009054906101000a900473ffffffffffffffffffffffffffffffffffffffff1673ffffffffffffffffffffffffffffffffffffffff163373ffffffffffffffffffffffffffffffffffffffff167fa048cb20af3564a7e7890fcaa3143722d8eea32e8c74cef665bb4ec1f2f48d828560010154866002015486604051613d2293929190615c04565b60405180910390a3857fc8926ec9c62d9b87ca5e4dfb0b49c1d0797cde714599e2c6d5663e5b813413ab6003604051613d5b919061574f565b60405180910390a2505050505050565b6000803373ffffffffffffffffffffffffffffffffffffffff1673ffffffffffffffffffffffffffffffffffffffff16815260200190815260200160002060000160159054906101000a900460ff16613df9576040517f08c379a0000000000000000000000000000000000000000000000000000000008152600401613df090615114565b60405180910390fd5b60026003811115613e0d57613e0c614731565b5b6000803373ffffffffffffffffffffffffffffffffffffffff1673ffffffffffffffffffffffffffffffffffffffff16815260200190815260200160002060000160149054906101000a900460ff166003811115613e6e57613e6d614731565b5b14613eae576040517f08c379a0000000000000000000000000000000000000000000000000000000008152600401613ea5906157ed565b60405180910390fd5b6000600260003373ffffffffffffffffffffffffffffffffffffffff1673ffffffffffffffffffffffffffffffffffffffff168152602001908152602001600020905060005b81805490508110156142665782828281548110613f1457613f13615556565b5b906000526020600020906006020160000154148015613f625750818181548110613f4157613f40615556565b5b906000526020600020906006020160050160009054906101000a900460ff16155b15614253576001828281548110613f7c57613f7b615556565b5b906000526020600020906006020160050160006101000a81548160ff0219169083151502179055506000828281548110613fb957613fb8615556565b5b906000526020600020906006020160030160009054906101000a900473ffffffffffffffffffffffffffffffffffffffff169050600083838154811061400257614001615556565b5b906000526020600020906006020160040154905060008111614059576040517f08c379a000000000000000000000000000000000000000000000000000000000815260040161405090615c87565b60405180910390fd5b80600360003373ffffffffffffffffffffffffffffffffffffffff1673ffffffffffffffffffffffffffffffffffffffff1681526020019081526020016000205410156140db576040517f08c379a00000000000000000000000000000000000000000000000000000000081526004016140d290615cf3565b60405180910390fd5b80600360003373ffffffffffffffffffffffffffffffffffffffff1673ffffffffffffffffffffffffffffffffffffffff168152602001908152602001600020600082825461412a9190615b64565b9250508190555060008273ffffffffffffffffffffffffffffffffffffffff168261c3509060405161415b90615d44565b600060405180830381858888f193505050503d8060008114614199576040519150601f19603f3d011682016040523d82523d6000602084013e61419e565b606091505b50509050806141e2576040517f08c379a00000000000000000000000000000000000000000000000000000000081526004016141d990615dcb565b60405180910390fd5b8273ffffffffffffffffffffffffffffffffffffffff163373ffffffffffffffffffffffffffffffffffffffff167fd5e90be9a023903c75b4f6929a82787cf6fd6c8e38c3f8801cc9705825496b64888560405161424192919061589f565b60405180910390a350505050506142a2565b808061425e906155b4565b915050613ef4565b506040517f08c379a000000000000000000000000000000000000000000000000000000000815260040161429990615e37565b60405180910390fd5b50565b604051806101200160405280600081526020016000815260200160008152602001600073ffffffffffffffffffffffffffffffffffffffff168152602001600073ffffffffffffffffffffffffffffffffffffffff168152602001600081526020016000600381111561431b5761431a614731565b5b815260200160608152602001600081525090565b6040518060c001604052806000815260200160008152602001600073ffffffffffffffffffffffffffffffffffffffff168152602001600073ffffffffffffffffffffffffffffffffffffffff168152602001600081526020016000151581525090565b6040518060e001604052806060815260200160008152602001600081526020016000815260200160608152602001600073ffffffffffffffffffffffffffffffffffffffff168152602001606081525090565b600081519050919050565b600082825260208201905092915050565b6000819050602082019050919050565b600081519050919050565b600082825260208201905092915050565b60005b8381101561444c578082015181840152602081019050614431565b60008484015250505050565b6000601f19601f8301169050919050565b600061447482614412565b61447e818561441d565b935061448e81856020860161442e565b61449781614458565b840191505092915050565b6000819050919050565b6144b5816144a2565b82525050565b600073ffffffffffffffffffffffffffffffffffffffff82169050919050565b60006144e6826144bb565b9050919050565b6144f6816144db565b82525050565b600060e08301600083015184820360008601526145198282614469565b915050602083015161452e60208601826144ac565b50604083015161454160408601826144ac565b50606083015161455460608601826144ac565b506080830151848203608086015261456c8282614469565b91505060a083015161458160a08601826144ed565b5060c083015184820360c08601526145998282614469565b9150508091505092915050565b60006145b283836144fc565b905092915050565b6000602082019050919050565b60006145d2826143e6565b6145dc81856143f1565b9350836020820285016145ee85614402565b8060005b8581101561462a578484038952815161460b85826145a6565b9450614616836145ba565b925060208a019950506001810190506145f2565b50829750879550505050505092915050565b6000602082019050818103600083015261465681846145c7565b905092915050565b6000604051905090565b600080fd5b600080fd5b600060ff82169050919050565b61468881614672565b811461469357600080fd5b50565b6000813590506146a58161467f565b92915050565b6000602082840312156146c1576146c0614668565b5b60006146cf84828501614696565b91505092915050565b6146e1816144db565b81146146ec57600080fd5b50565b6000813590506146fe816146d8565b92915050565b60006020828403121561471a57614719614668565b5b6000614728848285016146ef565b91505092915050565b7f4e487b7100000000000000000000000000000000000000000000000000000000600052602160045260246000fd5b6004811061477157614770614731565b5b50565b600081905061478282614760565b919050565b600061479282614774565b9050919050565b6147a281614787565b82525050565b60006020820190506147bd6000830184614799565b92915050565b6147cc816144a2565b81146147d757600080fd5b50565b6000813590506147e9816147c3565b92915050565b60008115159050919050565b614804816147ef565b811461480f57600080fd5b50565b600081359050614821816147fb565b92915050565b6000806040838503121561483e5761483d614668565b5b600061484c858286016147da565b925050602061485d85828601614812565b9150509250929050565b600081519050919050565b600082825260208201905092915050565b6000819050602082019050919050565b600481106148a4576148a3614731565b5b50565b60008190506148b582614893565b919050565b60006148c5826148a7565b9050919050565b6148d5816148ba565b82525050565b6000610120830160008301516148f460008601826144ac565b50602083015161490760208601826144ac565b50604083015161491a60408601826144ac565b50606083015161492d60608601826144ed565b50608083015161494060808601826144ed565b5060a083015161495360a08601826144ac565b5060c083015161496660c08601826148cc565b5060e083015184820360e086015261497e8282614469565b9150506101008301516149956101008601826144ac565b508091505092915050565b60006149ac83836148db565b905092915050565b6000602082019050919050565b60006149cc82614867565b6149d68185614872565b9350836020820285016149e885614883565b8060005b85811015614a245784840389528151614a0585826149a0565b9450614a10836149b4565b925060208a019950506001810190506149ec565b50829750879550505050505092915050565b60006020820190508181036000830152614a5081846149c1565b905092915050565b600080fd5b600080fd5b7f4e487b7100000000000000000000000000000000000000000000000000000000600052604160045260246000fd5b614a9a82614458565b810181811067ffffffffffffffff82111715614ab957614ab8614a62565b5b80604052505050565b6000614acc61465e565b9050614ad88282614a91565b919050565b600067ffffffffffffffff821115614af857614af7614a62565b5b614b0182614458565b9050602081019050919050565b82818337600083830152505050565b6000614b30614b2b84614add565b614ac2565b905082815260208101848484011115614b4c57614b4b614a5d565b5b614b57848285614b0e565b509392505050565b600082601f830112614b7457614b73614a58565b5b8135614b84848260208601614b1d565b91505092915050565b60008060008060808587031215614ba757614ba6614668565b5b600085013567ffffffffffffffff811115614bc557614bc461466d565b5b614bd187828801614b5f565b945050602085013567ffffffffffffffff811115614bf257614bf161466d565b5b614bfe87828801614b5f565b935050604085013567ffffffffffffffff811115614c1f57614c1e61466d565b5b614c2b87828801614b5f565b925050606085013567ffffffffffffffff811115614c4c57614c4b61466d565b5b614c5887828801614b5f565b91505092959194509250565b600080600060608486031215614c7d57614c7c614668565b5b6000614c8b868287016147da565b9350506020614c9c868287016147da565b925050604084013567ffffffffffffffff811115614cbd57614cbc61466d565b5b614cc986828701614b5f565b9150509250925092565b600081519050919050565b600082825260208201905092915050565b6000819050602082019050919050565b614d08816147ef565b82525050565b60c082016000820151614d2460008501826144ac565b506020820151614d3760208501826144ac565b506040820151614d4a60408501826144ed565b506060820151614d5d60608501826144ed565b506080820151614d7060808501826144ac565b5060a0820151614d8360a0850182614cff565b50505050565b6000614d958383614d0e565b60c08301905092915050565b6000602082019050919050565b6000614db982614cd3565b614dc38185614cde565b9350614dce83614cef565b8060005b83811015614dff578151614de68882614d89565b9750614df183614da1565b925050600181019050614dd2565b5085935050505092915050565b60006020820190508181036000830152614e268184614dae565b905092915050565b60008060008060008060c08789031215614e4b57614e4a614668565b5b600087013567ffffffffffffffff811115614e6957614e6861466d565b5b614e7589828a01614b5f565b9650506020614e8689828a016147da565b9550506040614e9789828a016147da565b9450506060614ea889828a016147da565b935050608087013567ffffffffffffffff811115614ec957614ec861466d565b5b614ed589828a01614b5f565b92505060a087013567ffffffffffffffff811115614ef657614ef561466d565b5b614f0289828a01614b5f565b9150509295509295509295565b614f18816144a2565b82525050565b6000602082019050614f336000830184614f0f565b92915050565b600082825260208201905092915050565b6000614f5582614412565b614f5f8185614f39565b9350614f6f81856020860161442e565b614f7881614458565b840191505092915050565b600060a0820190508181036000830152614f9d8188614f4a565b90508181036020830152614fb18187614f4a565b90508181036040830152614fc58186614f4a565b90508181036060830152614fd98185614f4a565b9050614fe86080830184614799565b9695505050505050565b614ffb816144db565b82525050565b61500a816147ef565b82525050565b600060e082019050615025600083018a614ff2565b6150326020830189614799565b61503f6040830188615001565b81810360608301526150518187614f4a565b905081810360808301526150658186614f4a565b905081810360a08301526150798185614f4a565b905081810360c083015261508d8184614f4a565b905098975050505050505050565b6000602082840312156150b1576150b0614668565b5b60006150bf848285016147da565b91505092915050565b7f55736572206e6f74207265676973746572656400000000000000000000000000600082015250565b60006150fe601383614f39565b9150615109826150c8565b602082019050919050565b6000602082019050818103600083015261512d816150f1565b9050919050565b7f4f6e6c79206661726d65727320616c6c6f776564000000000000000000000000600082015250565b600061516a601483614f39565b915061517582615134565b602082019050919050565b600060208201905081810360008301526151998161515d565b9050919050565b7f4e487b7100000000000000000000000000000000000000000000000000000000600052602260045260246000fd5b600060028204905060018216806151e757607f821691505b6020821081036151fa576151f96151a0565b5b50919050565b7f496e76616c696420726f6c650000000000000000000000000000000000000000600082015250565b6000615236600c83614f39565b915061524182615200565b602082019050919050565b6000602082019050818103600083015261526581615229565b9050919050565b7f5573657220616c72656164792072656769737465726564000000000000000000600082015250565b60006152a2601783614f39565b91506152ad8261526c565b602082019050919050565b600060208201905081810360008301526152d181615295565b9050919050565b60008190508160005260206000209050919050565b60006020601f8301049050919050565b600082821b905092915050565b60006008830261533a7fffffffffffffffffffffffffffffffffffffffffffffffffffffffffffffffff826152fd565b61534486836152fd565b95508019841693508086168417925050509392505050565b6000819050919050565b600061538161537c615377846144a2565b61535c565b6144a2565b9050919050565b6000819050919050565b61539b83615366565b6153af6153a782615388565b84845461530a565b825550505050565b600090565b6153c46153b7565b6153cf818484615392565b505050565b5b818110156153f3576153e86000826153bc565b6001810190506153d5565b5050565b601f82111561543857615409816152d8565b615412846152ed565b81016020851015615421578190505b61543561542d856152ed565b8301826153d4565b50505b505050565b600082821c905092915050565b600061545b6000198460080261543d565b1980831691505092915050565b6000615474838361544a565b9150826002028217905092915050565b61548d82614412565b67ffffffffffffffff8111156154a6576154a5614a62565b5b6154b082546151cf565b6154bb8282856153f7565b600060209050601f8311600181146154ee57600084156154dc578287015190505b6154e68582615468565b86555061554e565b601f1984166154fc866152d8565b60005b82811015615524578489015182556001820191506020850194506020810190506154ff565b86831015615541578489015161553d601f89168261544a565b8355505b6001600288020188555050505b505050505050565b7f4e487b7100000000000000000000000000000000000000000000000000000000600052603260045260246000fd5b7f4e487b7100000000000000000000000000000000000000000000000000000000600052601160045260246000fd5b60006155bf826144a2565b91507fffffffffffffffffffffffffffffffffffffffffffffffffffffffffffffffff82036155f1576155f0615585565b5b600182019050919050565b7f52657175657374206e6f7420666f756e64000000000000000000000000000000600082015250565b6000615632601183614f39565b915061563d826155fc565b602082019050919050565b6000602082019050818103600083015261566181615625565b9050919050565b7f4e6f7420796f7572207265717565737420746f20726573706f6e6420746f0000600082015250565b600061569e601e83614f39565b91506156a982615668565b602082019050919050565b600060208201905081810360008301526156cd81615691565b9050919050565b7f52657175657374206973206e6f742070656e64696e6700000000000000000000600082015250565b600061570a601683614f39565b9150615715826156d4565b602082019050919050565b60006020820190508181036000830152615739816156fd565b9050919050565b615749816148ba565b82525050565b60006020820190506157646000830184615740565b92915050565b600060408201905081810360008301526157848185614f4a565b905081810360208301526157988184614f4a565b90509392505050565b7f4f6e6c792062757965727320616c6c6f77656400000000000000000000000000600082015250565b60006157d7601383614f39565b91506157e2826157a1565b602082019050919050565b60006020820190508181036000830152615806816157ca565b9050919050565b7f43726f70206e6f7420666f756e64206f7220696e73756666696369656e74207160008201527f75616e746974792e000000000000000000000000000000000000000000000000602082015250565b6000615869602883614f39565b91506158748261580d565b604082019050919050565b600060208201905081810360008301526158988161585c565b9050919050565b60006040820190506158b46000830185614f0f565b6158c16020830184614f0f565b9392505050565b600060c08201905081810360008301526158e28189614f4a565b90506158f16020830188614f0f565b6158fe6040830187614f0f565b61590b6060830186614f0f565b818103608083015261591d8185614f4a565b905081810360a08301526159318184614f4a565b9050979650505050505050565b6000615949826144a2565b9150615954836144a2565b925082820190508082111561596c5761596b615585565b5b92915050565b7f4e6f7420796f7572207265717565737400000000000000000000000000000000600082015250565b60006159a8601083614f39565b91506159b382615972565b602082019050919050565b600060208201905081810360008301526159d78161599b565b9050919050565b7f5265717565737420686173206e6f74206265656e206163636570746564000000600082015250565b6000615a14601d83614f39565b9150615a1f826159de565b602082019050919050565b60006020820190508181036000830152615a4381615a07565b9050919050565b6000615a55826144a2565b9150615a60836144a2565b9250828202615a6e816144a2565b91508282048414831517615a8557615a84615585565b5b5092915050565b7f496e636f7272656374207061796d656e7420616d6f756e740000000000000000600082015250565b6000615ac2601883614f39565b9150615acd82615a8c565b602082019050919050565b60006020820190508181036000830152615af181615ab5565b9050919050565b7f496e73756666696369656e74207175616e7469747920617661696c61626c6500600082015250565b6000615b2e601f83614f39565b9150615b3982615af8565b602082019050919050565b60006020820190508181036000830152615b5d81615b21565b9050919050565b6000615b6f826144a2565b9150615b7a836144a2565b9250828203905081811115615b9257615b91615585565b5b92915050565b7f43726f70206e6f206c6f6e67657220617661696c61626c650000000000000000600082015250565b6000615bce601883614f39565b9150615bd982615b98565b602082019050919050565b60006020820190508181036000830152615bfd81615bc1565b9050919050565b6000606082019050615c196000830186614f0f565b615c266020830185614f0f565b615c336040830184614f0f565b949350505050565b7f4e6f2066756e647320617661696c61626c6520666f72207472616e736665722e600082015250565b6000615c71602083614f39565b9150615c7c82615c3b565b602082019050919050565b60006020820190508181036000830152615ca081615c64565b9050919050565b7f496e73756666696369656e7420657363726f772062616c616e63652e00000000600082015250565b6000615cdd601c83614f39565b9150615ce882615ca7565b602082019050919050565b60006020820190508181036000830152615d0c81615cd0565b9050919050565b600081905092915050565b50565b6000615d2e600083615d13565b9150615d3982615d1e565b600082019050919050565b6000615d4f82615d21565b9150819050919050565b7f5472616e73616374696f6e206661696c65642c20706f737369626c792064756560008201527f20746f20676173206c696d69742e000000000000000000000000000000000000602082015250565b6000615db5602e83614f39565b9150615dc082615d59565b604082019050919050565b60006020820190508181036000830152615de481615da8565b9050919050565b7f4e6f2070656e64696e672064656c697665727920666f756e642e000000000000600082015250565b6000615e21601a83614f39565b9150615e2c82615deb565b602082019050919050565b60006020820190508181036000830152615e5081615e14565b905091905056fea2646970667358221220fe09bc66885f94a9dc176b9adc7d0072e92724e601283a02c89de395bc10734f64736f6c63430008130033",
  "immutableReferences": {},
  "source": "// SPDX-License-Identifier: MIT\npragma solidity ^0.8.19;\n\ncontract FarmerPortal {\n    enum UserRole { Unregistered, Farmer, Buyer, Broker }\n    enum RequestStatus { Pending, Accepted, Rejected, Completed }\n\n    struct User {\n        address wallet;\n        UserRole role;\n        bool registered;\n        string name;\n        string profileImageCID;\n        string location;\n        string contact;\n    }\n\n    struct CropListing {\n        string cropName;\n        uint256 price;\n        uint256 cropID;\n        uint256 quantity;\n        string deliveryDate;\n        address farmer;\n        string imageCID;\n    }\n\n    struct Purchase {\n        uint256 cropID;\n        uint256 quantity;\n        address buyer;\n        address farmer;\n        uint256 amountHeld;\n        bool delivered;\n    }\n\n    struct PurchaseRequest {\n        uint256 requestId;\n        uint256 cropID;\n        uint256 quantity;\n        address buyer;\n        address farmer;\n        uint256 price;\n        RequestStatus status;\n        string message;\n        uint256 timestamp;\n    }\n\n    mapping(address => User) public users;\n    mapping(address => CropListing[]) private farmerListings;\n    mapping(address => Purchase[]) private deliveries;\n    mapping(address => uint256) public escrowBalances;\n    address[] private farmers;\n    \n    PurchaseRequest[] private purchaseRequests;\n    mapping(address => uint[]) private farmerRequests; // Requests for each farmer\n    mapping(address => uint[]) private buyerRequests; // Requests from each buyer\n    uint256 private nextRequestId = 1;\n\n    event UserRegistered(address indexed user, UserRole role);\n    event UserProfileUpdated(address indexed user, string name, string profileImageCID);\n    event CropListed(address indexed farmer, string cropName, uint256 price, uint256 cropID, uint256 quantity, string deliveryDate, string imageCID);\n    event CropBought(address indexed buyer, address indexed farmer, uint256 cropID, uint256 quantity, uint256 amountHeld);\n    event DeliveryConfirmed(address indexed buyer, address indexed farmer, uint256 cropID, uint256 amountReleased);\n    event PurchaseRequested(uint256 indexed requestId, address indexed buyer, address indexed farmer, uint256 cropID, uint256 quantity);\n    event RequestStatusChanged(uint256 indexed requestId, RequestStatus status);\n\n    modifier onlyFarmer() {\n        require(users[msg.sender].registered, \"User not registered\");\n        require(users[msg.sender].role == UserRole.Farmer, \"Only farmers allowed\");\n        _;\n    }\n\n    modifier onlyBuyer() {\n        require(users[msg.sender].registered, \"User not registered\");\n        require(users[msg.sender].role == UserRole.Buyer, \"Only buyers allowed\");\n        _;\n    }\n\n    modifier onlyBroker() {\n        require(users[msg.sender].registered, \"User not registered\");\n        require(users[msg.sender].role == UserRole.Broker, \"Only brokers allowed\");\n        _;\n    }\n\n    function registerUser(uint8 role) external {\n        require(role == uint8(UserRole.Farmer) || role == uint8(UserRole.Buyer) || role == uint8(UserRole.Broker), \"Invalid role\");\n        require(!users[msg.sender].registered, \"User already registered\");\n\n        users[msg.sender] = User(msg.sender, UserRole(role), true, \"\", \"\", \"\", \"\");\n        emit UserRegistered(msg.sender, UserRole(role));\n\n        if (role == uint8(UserRole.Farmer)) {\n            farmers.push(msg.sender);\n        }\n    }\n\n    function updateUserProfile(string memory _name, string memory _profileImageCID, string memory _location, string memory _contact) external {\n        require(users[msg.sender].registered, \"User not registered\");\n        \n        User storage user = users[msg.sender];\n        user.name = _name;\n        user.profileImageCID = _profileImageCID;\n        user.location = _location;\n        user.contact = _contact;\n        \n        emit UserProfileUpdated(msg.sender, _name, _profileImageCID);\n    }\n\n    function getUserProfile(address _userAddress) external view returns (string memory, string memory, string memory, string memory, UserRole) {\n        require(users[_userAddress].registered, \"User not registered\");\n        User memory user = users[_userAddress];\n        return (user.name, user.profileImageCID, user.location, user.contact, user.role);\n    }\n\n    function addListing(\n        string memory _cropName, \n        uint256 _price, \n        uint256 _cropID, \n        uint256 _quantity, \n        string memory _deliveryDate,\n        string memory _imageCID\n    ) external onlyFarmer {\n        CropListing memory newCrop = CropListing(\n            _cropName, \n            _price, \n            _cropID, \n            _quantity, \n            _deliveryDate, \n            msg.sender,\n            _imageCID\n        );\n        farmerListings[msg.sender].push(newCrop);\n        emit CropListed(msg.sender, _cropName, _price, _cropID, _quantity, _deliveryDate, _imageCID);\n    }\n\n    function getMyListings() external view onlyFarmer returns (CropListing[] memory) {\n        return farmerListings[msg.sender];\n    }\n\n    function getUserRole(address _user) external view returns (UserRole) {\n        return users[_user].role;\n    }\n\n    function getAllListings() external view returns (CropListing[] memory) {\n        uint256 totalCrops = 0;\n        for (uint256 i = 0; i < farmers.length; i++) {\n            totalCrops += farmerListings[farmers[i]].length;\n        }\n\n        CropListing[] memory allListings = new CropListing[](totalCrops);\n        uint256 index = 0;\n\n        for (uint256 i = 0; i < farmers.length; i++) {\n            address farmer = farmers[i]; \n            uint256 len = farmerListings[farmer].length;\n            for (uint256 j = 0; j < len; j++) {\n                allListings[index++] = farmerListings[farmer][j];\n            }\n        }\n\n        return allListings;\n    }\n\n    // New function for buyers to request purchase\n    function requestPurchase(uint256 cropID, uint256 quantity, string memory message) external onlyBuyer {\n        // Find the crop\n        address farmerAddress;\n        uint256 price;\n        bool found = false;\n        \n        for (uint256 i = 0; i < farmers.length && !found; i++) {\n            address farmer = farmers[i];\n            uint256 len = farmerListings[farmer].length;\n\n            for (uint256 j = 0; j < len && !found; j++) {\n                CropListing storage crop = farmerListings[farmer][j];\n\n                if (crop.cropID == cropID && crop.quantity >= quantity) {\n                    farmerAddress = farmer;\n                    price = crop.price;\n                    found = true;\n                }\n            }\n        }\n        \n        require(found, \"Crop not found or insufficient quantity.\");\n        \n        // Create a purchase request\n        uint256 requestId = nextRequestId++;\n        PurchaseRequest memory newRequest = PurchaseRequest({\n            requestId: requestId,\n            cropID: cropID,\n            quantity: quantity,\n            buyer: msg.sender,\n            farmer: farmerAddress,\n            price: price,\n            status: RequestStatus.Pending,\n            message: message,\n            timestamp: block.timestamp\n        });\n        \n        purchaseRequests.push(newRequest);\n        farmerRequests[farmerAddress].push(requestId);\n        buyerRequests[msg.sender].push(requestId);\n        \n        emit PurchaseRequested(requestId, msg.sender, farmerAddress, cropID, quantity);\n    }\n    \n    // Function for farmers to accept or reject purchase requests\n    function respondToPurchaseRequest(uint256 requestId, bool accept) external onlyFarmer {\n        // Find the request\n        uint256 index = 0;\n        bool found = false;\n        \n        for (uint256 i = 0; i < purchaseRequests.length && !found; i++) {\n            if (purchaseRequests[i].requestId == requestId) {\n                index = i;\n                found = true;\n            }\n        }\n        \n        require(found, \"Request not found\");\n        require(purchaseRequests[index].farmer == msg.sender, \"Not your request to respond to\");\n        require(purchaseRequests[index].status == RequestStatus.Pending, \"Request is not pending\");\n        \n        if (accept) {\n            purchaseRequests[index].status = RequestStatus.Accepted;\n        } else {\n            purchaseRequests[index].status = RequestStatus.Rejected;\n        }\n        \n        emit RequestStatusChanged(requestId, purchaseRequests[index].status);\n    }\n    \n    // Function for buyers to complete the purchase after acceptance\n    function completePurchase(uint256 requestId) external payable onlyBuyer {\n        // Find the request\n        uint256 index = 0;\n        bool found = false;\n        \n        for (uint256 i = 0; i < purchaseRequests.length && !found; i++) {\n            if (purchaseRequests[i].requestId == requestId) {\n                index = i;\n                found = true;\n            }\n        }\n        \n        require(found, \"Request not found\");\n        require(purchaseRequests[index].buyer == msg.sender, \"Not your request\");\n        require(purchaseRequests[index].status == RequestStatus.Accepted, \"Request has not been accepted\");\n        \n        PurchaseRequest storage request = purchaseRequests[index];\n        uint256 totalPrice = request.price * request.quantity;\n        \n        require(msg.value == totalPrice, \"Incorrect payment amount\");\n        \n        // Update crop quantity\n        bool cropFound = false;\n        for (uint256 i = 0; i < farmerListings[request.farmer].length && !cropFound; i++) {\n            if (farmerListings[request.farmer][i].cropID == request.cropID) {\n                require(farmerListings[request.farmer][i].quantity >= request.quantity, \"Insufficient quantity available\");\n                farmerListings[request.farmer][i].quantity -= request.quantity;\n                cropFound = true;\n            }\n        }\n        \n        require(cropFound, \"Crop no longer available\");\n        \n        // Add to escrow\n                    escrowBalances[msg.sender] += totalPrice;\n\n        // Create a purchase record\n                    deliveries[msg.sender].push(\n                        Purchase({\n                cropID: request.cropID,\n                quantity: request.quantity,\n                            buyer: msg.sender,\n                farmer: request.farmer,\n                            amountHeld: totalPrice,\n                            delivered: false\n                        })\n                    );\n\n        // Update request status\n        request.status = RequestStatus.Completed;\n        \n        emit CropBought(msg.sender, request.farmer, request.cropID, request.quantity, totalPrice);\n        emit RequestStatusChanged(requestId, RequestStatus.Completed);\n    }\n\n    // Function to get purchase requests for a farmer\n    function getFarmerRequests() external view onlyFarmer returns (PurchaseRequest[] memory) {\n        uint256[] memory requestIds = farmerRequests[msg.sender];\n        PurchaseRequest[] memory requests = new PurchaseRequest[](requestIds.length);\n        \n        for (uint256 i = 0; i < requestIds.length; i++) {\n            uint256 requestId = requestIds[i];\n            \n            // Find the request in the array\n            for (uint256 j = 0; j < purchaseRequests.length; j++) {\n                if (purchaseRequests[j].requestId == requestId) {\n                    requests[i] = purchaseRequests[j];\n                    break;\n                }\n            }\n        }\n        \n        return requests;\n    }\n    \n    // Function to get purchase requests for a buyer\n    function getBuyerRequests() external view onlyBuyer returns (PurchaseRequest[] memory) {\n        uint256[] memory requestIds = buyerRequests[msg.sender];\n        PurchaseRequest[] memory requests = new PurchaseRequest[](requestIds.length);\n        \n        for (uint256 i = 0; i < requestIds.length; i++) {\n            uint256 requestId = requestIds[i];\n            \n            // Find the request in the array\n            for (uint256 j = 0; j < purchaseRequests.length; j++) {\n                if (purchaseRequests[j].requestId == requestId) {\n                    requests[i] = purchaseRequests[j];\n                    break;\n                }\n            }\n        }\n        \n        return requests;\n    }\n\n    function getPendingDeliveries() external view onlyBuyer returns (Purchase[] memory) {\n        uint256 count = 0;\n        Purchase[] storage userPurchases = deliveries[msg.sender];\n\n        for (uint256 i = 0; i < userPurchases.length; i++) {\n            if (!userPurchases[i].delivered) {\n                count++;\n            }\n        }\n\n        Purchase[] memory pendingDeliveries = new Purchase[](count);\n        uint256 index = 0;\n\n        for (uint256 i = 0; i < userPurchases.length; i++) {\n            if (!userPurchases[i].delivered) {\n                pendingDeliveries[index++] = userPurchases[i];\n            }\n        }\n\n        return pendingDeliveries;\n    }\n\n    function confirmDelivery(uint256 cropID) external onlyBuyer {\n        Purchase[] storage userPurchases = deliveries[msg.sender];\n\n        for (uint256 i = 0; i < userPurchases.length; i++) {\n            if (userPurchases[i].cropID == cropID && !userPurchases[i].delivered) {\n                userPurchases[i].delivered = true;\n                address farmer = userPurchases[i].farmer;\n                uint256 amount = userPurchases[i].amountHeld;\n\n                require(amount > 0, \"No funds available for transfer.\");\n                require(escrowBalances[msg.sender] >= amount, \"Insufficient escrow balance.\");\n\n    \n                escrowBalances[msg.sender] -= amount;\n\n          \n                (bool success, ) = payable(farmer).call{value: amount, gas: 50000}(\"\");\n                require(success, \"Transaction failed, possibly due to gas limit.\");\n\n                emit DeliveryConfirmed(msg.sender, farmer, cropID, amount);\n                return;\n            }\n        }\n        revert(\"No pending delivery found.\");\n    }\n    \n}\n",
  "sourcePath": "E:\\download\\Farm_Assure-main\\Farm_Assure-main\\interested wala ke saath\\contract\\contracts\\FarmerPortal.sol",
  "compiler": {
    "name": "solc",
    "version": "0.8.19+commit.7dd6d404.Emscripten.clang"
  },
  "schemaVersion": "3.4.16",
  "updatedAt": "2025-03-22T09:40:54.518Z",
  "networkType": "ethereum",
  "devdoc": {
    "kind": "dev",
    "methods": {},
    "version": 1
  },
  "userdoc": {
    "kind": "user",
    "methods": {},
    "version": 1
  }
}